{
  "_format": "hh-sol-artifact-1",
  "contractName": "Marketplace",
  "sourceName": "src/backend/contracts/Marketplace.sol",
  "abi": [
    {
      "inputs": [
        {
          "internalType": "uint256",
          "name": "_feePercent",
          "type": "uint256"
        }
      ],
      "stateMutability": "nonpayable",
      "type": "constructor"
    },
    {
      "anonymous": false,
      "inputs": [
        {
          "indexed": false,
          "internalType": "uint256",
          "name": "itemId",
          "type": "uint256"
        },
        {
          "indexed": true,
          "internalType": "address",
          "name": "nft",
          "type": "address"
        },
        {
          "indexed": false,
          "internalType": "uint256",
          "name": "tokenId",
          "type": "uint256"
        },
        {
          "indexed": false,
          "internalType": "uint256",
          "name": "price",
          "type": "uint256"
        },
        {
          "indexed": true,
          "internalType": "address",
          "name": "seller",
          "type": "address"
        },
        {
          "indexed": true,
          "internalType": "address",
          "name": "buyer",
          "type": "address"
        }
      ],
      "name": "Bought",
      "type": "event"
    },
    {
      "anonymous": false,
      "inputs": [
        {
          "indexed": false,
          "internalType": "uint256",
          "name": "itemId",
          "type": "uint256"
        },
        {
          "indexed": true,
          "internalType": "address",
          "name": "nft",
          "type": "address"
        },
        {
          "indexed": false,
          "internalType": "uint256",
          "name": "tokenId",
          "type": "uint256"
        },
        {
          "indexed": false,
          "internalType": "uint256",
          "name": "price",
          "type": "uint256"
        },
        {
          "indexed": true,
          "internalType": "address",
          "name": "seller",
          "type": "address"
        }
      ],
      "name": "Offered",
      "type": "event"
    },
    {
      "inputs": [],
      "name": "feeAccount",
      "outputs": [
        {
          "internalType": "address payable",
          "name": "",
          "type": "address"
        }
      ],
      "stateMutability": "view",
      "type": "function"
    },
    {
      "inputs": [],
      "name": "feePercent",
      "outputs": [
        {
          "internalType": "uint256",
          "name": "",
          "type": "uint256"
        }
      ],
      "stateMutability": "view",
      "type": "function"
    },
    {
      "inputs": [
        {
          "internalType": "uint256",
          "name": "_itemId",
          "type": "uint256"
        }
      ],
      "name": "getTotalPrice",
      "outputs": [
        {
          "internalType": "uint256",
          "name": "",
          "type": "uint256"
        }
      ],
      "stateMutability": "view",
      "type": "function"
    },
    {
      "inputs": [
        {
          "internalType": "uint256",
          "name": "itemId",
          "type": "uint256"
        }
      ],
      "name": "isOwner",
      "outputs": [
        {
          "internalType": "bool",
          "name": "",
          "type": "bool"
        }
      ],
      "stateMutability": "view",
      "type": "function"
    },
    {
      "inputs": [],
      "name": "itemCount",
      "outputs": [
        {
          "internalType": "uint256",
          "name": "",
          "type": "uint256"
        }
      ],
      "stateMutability": "view",
      "type": "function"
    },
    {
      "inputs": [
        {
          "internalType": "uint256",
          "name": "",
          "type": "uint256"
        }
      ],
      "name": "items",
      "outputs": [
        {
          "internalType": "uint256",
          "name": "itemId",
          "type": "uint256"
        },
        {
          "internalType": "contract IERC721",
          "name": "nft",
          "type": "address"
        },
        {
          "internalType": "uint256",
          "name": "tokenId",
          "type": "uint256"
        },
        {
          "internalType": "uint256",
          "name": "price",
          "type": "uint256"
        },
        {
          "internalType": "address payable",
          "name": "seller",
          "type": "address"
        },
        {
          "internalType": "bool",
          "name": "sold",
          "type": "bool"
        },
        {
          "internalType": "address",
          "name": "creator",
          "type": "address"
        }
      ],
      "stateMutability": "view",
      "type": "function"
    },
    {
      "inputs": [
        {
          "internalType": "contract IERC721",
          "name": "_nft",
          "type": "address"
        },
        {
          "internalType": "uint256",
          "name": "_tokenId",
          "type": "uint256"
        },
        {
          "internalType": "uint256",
          "name": "_price",
          "type": "uint256"
        }
      ],
      "name": "makeItem",
      "outputs": [],
      "stateMutability": "nonpayable",
      "type": "function"
    },
    {
      "inputs": [
        {
          "internalType": "uint256",
          "name": "_itemId",
          "type": "uint256"
        }
      ],
      "name": "purchaseItem",
      "outputs": [],
      "stateMutability": "payable",
      "type": "function"
    },
    {
      "inputs": [
        {
          "internalType": "uint256",
          "name": "_itemId",
          "type": "uint256"
        },
        {
          "internalType": "uint256",
          "name": "_price",
          "type": "uint256"
        }
      ],
      "name": "resellItem",
      "outputs": [],
      "stateMutability": "nonpayable",
      "type": "function"
    }
  ],
  "bytecode": "0x60c06040523480156200001157600080fd5b50604051620017403803806200174083398181016040528101906200003791906200009c565b60016000819055503373ffffffffffffffffffffffffffffffffffffffff1660808173ffffffffffffffffffffffffffffffffffffffff1660601b815250508060a0818152505050620000ec565b6000815190506200009681620000d2565b92915050565b600060208284031215620000af57600080fd5b6000620000bf8482850162000085565b91505092915050565b6000819050919050565b620000dd81620000c8565b8114620000e957600080fd5b50565b60805160601c60a05161161d62000123600039600081816102d101526103a80152600081816102a701526105ce015261161d6000f3fe6080604052600436106100865760003560e01c8063bfb231d211610059578063bfb231d214610149578063ca7dd3751461018c578063d38ea5bf146101c9578063f9eccb3b146101e5578063fa00afc71461020e57610086565b806339c7639c1461008b57806365e17c9d146100c85780636bfb0d01146100f35780637fd6f15c1461011e575b600080fd5b34801561009757600080fd5b506100b260048036038101906100ad9190610eaa565b610237565b6040516100bf919061107e565b60405180910390f35b3480156100d457600080fd5b506100dd6102a5565b6040516100ea919061102c565b60405180910390f35b3480156100ff57600080fd5b506101086102c9565b6040516101159190611159565b60405180910390f35b34801561012a57600080fd5b506101336102cf565b6040516101409190611159565b60405180910390f35b34801561015557600080fd5b50610170600480360381019061016b9190610eaa565b6102f3565b6040516101839796959493929190611174565b60405180910390f35b34801561019857600080fd5b506101b360048036038101906101ae9190610eaa565b6103a2565b6040516101c09190611159565b60405180910390f35b6101e360048036038101906101de9190610eaa565b610405565b005b3480156101f157600080fd5b5061020c60048036038101906102079190610ed3565b610816565b005b34801561021a57600080fd5b5061023560048036038101906102309190610e5b565b610afc565b005b60003373ffffffffffffffffffffffffffffffffffffffff166002600084815260200190815260200160002060040160009054906101000a900473ffffffffffffffffffffffffffffffffffffffff1673ffffffffffffffffffffffffffffffffffffffff16149050919050565b7f000000000000000000000000000000000000000000000000000000000000000081565b60015481565b7f000000000000000000000000000000000000000000000000000000000000000081565b60026020528060005260406000206000915090508060000154908060010160009054906101000a900473ffffffffffffffffffffffffffffffffffffffff16908060020154908060030154908060040160009054906101000a900473ffffffffffffffffffffffffffffffffffffffff16908060040160149054906101000a900460ff16908060050160009054906101000a900473ffffffffffffffffffffffffffffffffffffffff16905087565b600060647f000000000000000000000000000000000000000000000000000000000000000060646103d3919061122b565b60026000858152602001908152602001600020600301546103f491906112b2565b6103fe9190611281565b9050919050565b6002600054141561044b576040517f08c379a000000000000000000000000000000000000000000000000000000000815260040161044290611119565b60405180910390fd5b6002600081905550600061045e826103a2565b9050600060026000848152602001908152602001600020905060008311801561048957506001548311155b6104c8576040517f08c379a00000000000000000000000000000000000000000000000000000000081526004016104bf906110f9565b60405180910390fd5b8134101561050b576040517f08c379a0000000000000000000000000000000000000000000000000000000008152600401610502906110d9565b60405180910390fd5b8060040160149054906101000a900460ff161561055d576040517f08c379a000000000000000000000000000000000000000000000000000000000815260040161055490611139565b60405180910390fd5b8060040160009054906101000a900473ffffffffffffffffffffffffffffffffffffffff1673ffffffffffffffffffffffffffffffffffffffff166108fc82600301549081150290604051600060405180830381858888f193505050501580156105cb573d6000803e3d6000fd5b507f000000000000000000000000000000000000000000000000000000000000000073ffffffffffffffffffffffffffffffffffffffff166108fc826003015484610616919061130c565b9081150290604051600060405180830381858888f19350505050158015610641573d6000803e3d6000fd5b5060018160040160146101000a81548160ff0219169083151502179055508060010160009054906101000a900473ffffffffffffffffffffffffffffffffffffffff1673ffffffffffffffffffffffffffffffffffffffff166323b872dd303384600201546040518463ffffffff1660e01b81526004016106c493929190611047565b600060405180830381600087803b1580156106de57600080fd5b505af11580156106f2573d6000803e3d6000fd5b50505050338160040160006101000a81548173ffffffffffffffffffffffffffffffffffffffff021916908373ffffffffffffffffffffffffffffffffffffffff1602179055503373ffffffffffffffffffffffffffffffffffffffff168160040160009054906101000a900473ffffffffffffffffffffffffffffffffffffffff1673ffffffffffffffffffffffffffffffffffffffff168260010160009054906101000a900473ffffffffffffffffffffffffffffffffffffffff1673ffffffffffffffffffffffffffffffffffffffff167f8b4c9c8a607d67b321582dd8461041b1dc2ceeca70c8b7f37f8e02095cf2e76d8685600201548660030154604051610801939291906111e3565b60405180910390a45050600160008190555050565b6002600054141561085c576040517f08c379a000000000000000000000000000000000000000000000000000000000815260040161085390611119565b60405180910390fd5b60026000819055506000600260008481526020019081526020016000209050600082116108be576040517f08c379a00000000000000000000000000000000000000000000000000000000081526004016108b590611099565b60405180910390fd5b6000831180156108d057506001548311155b61090f576040517f08c379a0000000000000000000000000000000000000000000000000000000008152600401610906906110f9565b60405180910390fd5b8060040160009054906101000a900473ffffffffffffffffffffffffffffffffffffffff1673ffffffffffffffffffffffffffffffffffffffff163373ffffffffffffffffffffffffffffffffffffffff16146109a1576040517f08c379a0000000000000000000000000000000000000000000000000000000008152600401610998906110b9565b60405180910390fd5b81816003018190555060008160040160146101000a81548160ff0219169083151502179055508060010160009054906101000a900473ffffffffffffffffffffffffffffffffffffffff1673ffffffffffffffffffffffffffffffffffffffff166323b872dd333084600201546040518463ffffffff1660e01b8152600401610a2c93929190611047565b600060405180830381600087803b158015610a4657600080fd5b505af1158015610a5a573d6000803e3d6000fd5b505050503373ffffffffffffffffffffffffffffffffffffffff168160010160009054906101000a900473ffffffffffffffffffffffffffffffffffffffff1673ffffffffffffffffffffffffffffffffffffffff167f655a0cf9c8db81512be9a76dc1c5ae5380b8816ce6ad659cd61b715e2999d59a85846002015486604051610ae7939291906111e3565b60405180910390a35060016000819055505050565b60026000541415610b42576040517f08c379a0000000000000000000000000000000000000000000000000000000008152600401610b3990611119565b60405180910390fd5b600260008190555060008111610b8d576040517f08c379a0000000000000000000000000000000000000000000000000000000008152600401610b8490611099565b60405180910390fd5b60016000815480929190610ba0906113d0565b91905055508273ffffffffffffffffffffffffffffffffffffffff166323b872dd3330856040518463ffffffff1660e01b8152600401610be293929190611047565b600060405180830381600087803b158015610bfc57600080fd5b505af1158015610c10573d6000803e3d6000fd5b505050506040518060e0016040528060015481526020018473ffffffffffffffffffffffffffffffffffffffff1681526020018381526020018281526020013373ffffffffffffffffffffffffffffffffffffffff1681526020016000151581526020013373ffffffffffffffffffffffffffffffffffffffff168152506002600060015481526020019081526020016000206000820151816000015560208201518160010160006101000a81548173ffffffffffffffffffffffffffffffffffffffff021916908373ffffffffffffffffffffffffffffffffffffffff160217905550604082015181600201556060820151816003015560808201518160040160006101000a81548173ffffffffffffffffffffffffffffffffffffffff021916908373ffffffffffffffffffffffffffffffffffffffff16021790555060a08201518160040160146101000a81548160ff02191690831515021790555060c08201518160050160006101000a81548173ffffffffffffffffffffffffffffffffffffffff021916908373ffffffffffffffffffffffffffffffffffffffff1602179055509050503373ffffffffffffffffffffffffffffffffffffffff168373ffffffffffffffffffffffffffffffffffffffff167f655a0cf9c8db81512be9a76dc1c5ae5380b8816ce6ad659cd61b715e2999d59a6001548585604051610e1c939291906111e3565b60405180910390a36001600081905550505050565b600081359050610e40816115b9565b92915050565b600081359050610e55816115d0565b92915050565b600080600060608486031215610e7057600080fd5b6000610e7e86828701610e31565b9350506020610e8f86828701610e46565b9250506040610ea086828701610e46565b9150509250925092565b600060208284031215610ebc57600080fd5b6000610eca84828501610e46565b91505092915050565b60008060408385031215610ee657600080fd5b6000610ef485828601610e46565b9250506020610f0585828601610e46565b9150509250929050565b610f1881611352565b82525050565b610f2781611340565b82525050565b610f3681611364565b82525050565b610f45816113ac565b82525050565b6000610f58601f8361121a565b9150610f6382611477565b602082019050919050565b6000610f7b60238361121a565b9150610f86826114a0565b604082019050919050565b6000610f9e60338361121a565b9150610fa9826114ef565b604082019050919050565b6000610fc160128361121a565b9150610fcc8261153e565b602082019050919050565b6000610fe4601f8361121a565b9150610fef82611567565b602082019050919050565b600061100760118361121a565b915061101282611590565b602082019050919050565b611026816113a2565b82525050565b60006020820190506110416000830184610f0f565b92915050565b600060608201905061105c6000830186610f1e565b6110696020830185610f1e565b611076604083018461101d565b949350505050565b60006020820190506110936000830184610f2d565b92915050565b600060208201905081810360008301526110b281610f4b565b9050919050565b600060208201905081810360008301526110d281610f6e565b9050919050565b600060208201905081810360008301526110f281610f91565b9050919050565b6000602082019050818103600083015261111281610fb4565b9050919050565b6000602082019050818103600083015261113281610fd7565b9050919050565b6000602082019050818103600083015261115281610ffa565b9050919050565b600060208201905061116e600083018461101d565b92915050565b600060e082019050611189600083018a61101d565b6111966020830189610f3c565b6111a3604083018861101d565b6111b0606083018761101d565b6111bd6080830186610f0f565b6111ca60a0830185610f2d565b6111d760c0830184610f1e565b98975050505050505050565b60006060820190506111f8600083018661101d565b611205602083018561101d565b611212604083018461101d565b949350505050565b600082825260208201905092915050565b6000611236826113a2565b9150611241836113a2565b9250827fffffffffffffffffffffffffffffffffffffffffffffffffffffffffffffffff0382111561127657611275611419565b5b828201905092915050565b600061128c826113a2565b9150611297836113a2565b9250826112a7576112a6611448565b5b828204905092915050565b60006112bd826113a2565b91506112c8836113a2565b9250817fffffffffffffffffffffffffffffffffffffffffffffffffffffffffffffffff048311821515161561130157611300611419565b5b828202905092915050565b6000611317826113a2565b9150611322836113a2565b92508282101561133557611334611419565b5b828203905092915050565b600061134b82611382565b9050919050565b600061135d82611382565b9050919050565b60008115159050919050565b600061137b82611340565b9050919050565b600073ffffffffffffffffffffffffffffffffffffffff82169050919050565b6000819050919050565b60006113b7826113be565b9050919050565b60006113c982611382565b9050919050565b60006113db826113a2565b91507fffffffffffffffffffffffffffffffffffffffffffffffffffffffffffffffff82141561140e5761140d611419565b5b600182019050919050565b7f4e487b7100000000000000000000000000000000000000000000000000000000600052601160045260246000fd5b7f4e487b7100000000000000000000000000000000000000000000000000000000600052601260045260246000fd5b7f5072696365206d7573742062652067726561746572207468616e207a65726f00600082015250565b7f4f6e6c79207468652073656c6c65722063616e20726573656c6c20746865206960008201527f74656d0000000000000000000000000000000000000000000000000000000000602082015250565b7f4e6f7420656e6f75676820457468657220746f20636f766572206974656d207060008201527f7269636520616e64206d61726b65742066656500000000000000000000000000602082015250565b7f4974656d20646f65736e27742065786973740000000000000000000000000000600082015250565b7f5265656e7472616e637947756172643a207265656e7472616e742063616c6c00600082015250565b7f4974656d20616c726561647920736f6c64000000000000000000000000000000600082015250565b6115c281611370565b81146115cd57600080fd5b50565b6115d9816113a2565b81146115e457600080fd5b5056fea2646970667358221220ad12ad04ff8c09b9dd6612926a94855ea23431df57bbc6747d6982859d029bbb64736f6c63430008040033",
  "linkReferences": {},
  "deployedLinkReferences": {}
}