{
  "_format": "hh-sol-artifact-1",
  "contractName": "Marketplace",
  "sourceName": "src/backend/contracts/Marketplace.sol",
  "abi": [
    {
      "inputs": [
        {
          "internalType": "uint256",
          "name": "_feePercent",
          "type": "uint256"
        }
      ],
      "stateMutability": "nonpayable",
      "type": "constructor"
    },
    {
      "anonymous": false,
      "inputs": [
        {
          "indexed": false,
          "internalType": "uint256",
          "name": "itemId",
          "type": "uint256"
        },
        {
          "indexed": true,
          "internalType": "address",
          "name": "nft",
          "type": "address"
        },
        {
          "indexed": false,
          "internalType": "uint256",
          "name": "tokenId",
          "type": "uint256"
        },
        {
          "indexed": false,
          "internalType": "uint256",
          "name": "price",
          "type": "uint256"
        },
        {
          "indexed": true,
          "internalType": "address",
          "name": "seller",
          "type": "address"
        },
        {
          "indexed": true,
          "internalType": "address",
          "name": "buyer",
          "type": "address"
        }
      ],
      "name": "Bought",
      "type": "event"
    },
    {
      "anonymous": false,
      "inputs": [
        {
          "indexed": false,
          "internalType": "uint256",
          "name": "itemId",
          "type": "uint256"
        },
        {
          "indexed": true,
          "internalType": "address",
          "name": "nft",
          "type": "address"
        },
        {
          "indexed": false,
          "internalType": "uint256",
          "name": "tokenId",
          "type": "uint256"
        },
        {
          "indexed": false,
          "internalType": "uint256",
          "name": "price",
          "type": "uint256"
        },
        {
          "indexed": true,
          "internalType": "address",
          "name": "seller",
          "type": "address"
        }
      ],
      "name": "Offered",
      "type": "event"
    },
    {
      "inputs": [],
      "name": "feeAccount",
      "outputs": [
        {
          "internalType": "address payable",
          "name": "",
          "type": "address"
        }
      ],
      "stateMutability": "view",
      "type": "function"
    },
    {
      "inputs": [],
      "name": "feePercent",
      "outputs": [
        {
          "internalType": "uint256",
          "name": "",
          "type": "uint256"
        }
      ],
      "stateMutability": "view",
      "type": "function"
    },
    {
      "inputs": [
        {
          "internalType": "uint256",
          "name": "_itemId",
          "type": "uint256"
        }
      ],
      "name": "getTotalPrice",
      "outputs": [
        {
          "internalType": "uint256",
          "name": "",
          "type": "uint256"
        }
      ],
      "stateMutability": "view",
      "type": "function"
    },
    {
      "inputs": [],
      "name": "itemCount",
      "outputs": [
        {
          "internalType": "uint256",
          "name": "",
          "type": "uint256"
        }
      ],
      "stateMutability": "view",
      "type": "function"
    },
    {
      "inputs": [
        {
          "internalType": "uint256",
          "name": "",
          "type": "uint256"
        }
      ],
      "name": "items",
      "outputs": [
        {
          "internalType": "uint256",
          "name": "itemId",
          "type": "uint256"
        },
        {
          "internalType": "contract IERC721",
          "name": "nft",
          "type": "address"
        },
        {
          "internalType": "uint256",
          "name": "tokenId",
          "type": "uint256"
        },
        {
          "internalType": "uint256",
          "name": "price",
          "type": "uint256"
        },
        {
          "internalType": "address payable",
          "name": "seller",
          "type": "address"
        },
        {
          "internalType": "bool",
          "name": "sold",
          "type": "bool"
        }
      ],
      "stateMutability": "view",
      "type": "function"
    },
    {
      "inputs": [
        {
          "internalType": "contract IERC721",
          "name": "_nft",
          "type": "address"
        },
        {
          "internalType": "uint256",
          "name": "_tokenId",
          "type": "uint256"
        },
        {
          "internalType": "uint256",
          "name": "_price",
          "type": "uint256"
        }
      ],
      "name": "makeItem",
      "outputs": [],
      "stateMutability": "nonpayable",
      "type": "function"
    },
    {
      "inputs": [
        {
          "internalType": "uint256",
          "name": "_itemId",
          "type": "uint256"
        }
      ],
      "name": "purchaseItem",
      "outputs": [],
      "stateMutability": "payable",
      "type": "function"
    },
    {
      "inputs": [
        {
          "internalType": "uint256",
          "name": "_itemId",
          "type": "uint256"
        },
        {
          "internalType": "uint256",
          "name": "_price",
          "type": "uint256"
        }
      ],
      "name": "resellItem",
      "outputs": [],
      "stateMutability": "nonpayable",
      "type": "function"
    }
  ],
  "bytecode": "0x60c06040523480156200001157600080fd5b50604051620015d7380380620015d783398181016040528101906200003791906200009c565b60016000819055503373ffffffffffffffffffffffffffffffffffffffff1660808173ffffffffffffffffffffffffffffffffffffffff1660601b815250508060a0818152505050620000ec565b6000815190506200009681620000d2565b92915050565b600060208284031215620000af57600080fd5b6000620000bf8482850162000085565b91505092915050565b6000819050919050565b620000dd81620000c8565b8114620000e957600080fd5b50565b60805160601c60a0516114b4620001236000396000818161021a01526102cb0152600081816101f001526104f101526114b46000f3fe60806040526004361061007b5760003560e01c8063ca7dd3751161004e578063ca7dd37514610143578063d38ea5bf14610180578063f9eccb3b1461019c578063fa00afc7146101c55761007b565b806365e17c9d146100805780636bfb0d01146100ab5780637fd6f15c146100d6578063bfb231d214610101575b600080fd5b34801561008c57600080fd5b506100956101ee565b6040516100a29190610eec565b60405180910390f35b3480156100b757600080fd5b506100c0610212565b6040516100cd9190610ffe565b60405180910390f35b3480156100e257600080fd5b506100eb610218565b6040516100f89190610ffe565b60405180910390f35b34801561010d57600080fd5b5061012860048036038101906101239190610d6a565b61023c565b60405161013a96959493929190611019565b60405180910390f35b34801561014f57600080fd5b5061016a60048036038101906101659190610d6a565b6102c5565b6040516101779190610ffe565b60405180910390f35b61019a60048036038101906101959190610d6a565b610328565b005b3480156101a857600080fd5b506101c360048036038101906101be9190610d93565b610739565b005b3480156101d157600080fd5b506101ec60048036038101906101e79190610d1b565b610a1f565b005b7f000000000000000000000000000000000000000000000000000000000000000081565b60015481565b7f000000000000000000000000000000000000000000000000000000000000000081565b60026020528060005260406000206000915090508060000154908060010160009054906101000a900473ffffffffffffffffffffffffffffffffffffffff16908060020154908060030154908060040160009054906101000a900473ffffffffffffffffffffffffffffffffffffffff16908060040160149054906101000a900460ff16905086565b600060647f000000000000000000000000000000000000000000000000000000000000000060646102f691906110c2565b60026000858152602001908152602001600020600301546103179190611149565b6103219190611118565b9050919050565b6002600054141561036e576040517f08c379a000000000000000000000000000000000000000000000000000000000815260040161036590610fbe565b60405180910390fd5b60026000819055506000610381826102c5565b905060006002600084815260200190815260200160002090506000831180156103ac57506001548311155b6103eb576040517f08c379a00000000000000000000000000000000000000000000000000000000081526004016103e290610f9e565b60405180910390fd5b8134101561042e576040517f08c379a000000000000000000000000000000000000000000000000000000000815260040161042590610f7e565b60405180910390fd5b8060040160149054906101000a900460ff1615610480576040517f08c379a000000000000000000000000000000000000000000000000000000000815260040161047790610fde565b60405180910390fd5b8060040160009054906101000a900473ffffffffffffffffffffffffffffffffffffffff1673ffffffffffffffffffffffffffffffffffffffff166108fc82600301549081150290604051600060405180830381858888f193505050501580156104ee573d6000803e3d6000fd5b507f000000000000000000000000000000000000000000000000000000000000000073ffffffffffffffffffffffffffffffffffffffff166108fc82600301548461053991906111a3565b9081150290604051600060405180830381858888f19350505050158015610564573d6000803e3d6000fd5b5060018160040160146101000a81548160ff0219169083151502179055508060010160009054906101000a900473ffffffffffffffffffffffffffffffffffffffff1673ffffffffffffffffffffffffffffffffffffffff166323b872dd303384600201546040518463ffffffff1660e01b81526004016105e793929190610f07565b600060405180830381600087803b15801561060157600080fd5b505af1158015610615573d6000803e3d6000fd5b50505050338160040160006101000a81548173ffffffffffffffffffffffffffffffffffffffff021916908373ffffffffffffffffffffffffffffffffffffffff1602179055503373ffffffffffffffffffffffffffffffffffffffff168160040160009054906101000a900473ffffffffffffffffffffffffffffffffffffffff1673ffffffffffffffffffffffffffffffffffffffff168260010160009054906101000a900473ffffffffffffffffffffffffffffffffffffffff1673ffffffffffffffffffffffffffffffffffffffff167f8b4c9c8a607d67b321582dd8461041b1dc2ceeca70c8b7f37f8e02095cf2e76d86856002015486600301546040516107249392919061107a565b60405180910390a45050600160008190555050565b6002600054141561077f576040517f08c379a000000000000000000000000000000000000000000000000000000000815260040161077690610fbe565b60405180910390fd5b60026000819055506000600260008481526020019081526020016000209050600082116107e1576040517f08c379a00000000000000000000000000000000000000000000000000000000081526004016107d890610f3e565b60405180910390fd5b6000831180156107f357506001548311155b610832576040517f08c379a000000000000000000000000000000000000000000000000000000000815260040161082990610f9e565b60405180910390fd5b8060040160009054906101000a900473ffffffffffffffffffffffffffffffffffffffff1673ffffffffffffffffffffffffffffffffffffffff163373ffffffffffffffffffffffffffffffffffffffff16146108c4576040517f08c379a00000000000000000000000000000000000000000000000000000000081526004016108bb90610f5e565b60405180910390fd5b81816003018190555060008160040160146101000a81548160ff0219169083151502179055508060010160009054906101000a900473ffffffffffffffffffffffffffffffffffffffff1673ffffffffffffffffffffffffffffffffffffffff166323b872dd333084600201546040518463ffffffff1660e01b815260040161094f93929190610f07565b600060405180830381600087803b15801561096957600080fd5b505af115801561097d573d6000803e3d6000fd5b505050503373ffffffffffffffffffffffffffffffffffffffff168160010160009054906101000a900473ffffffffffffffffffffffffffffffffffffffff1673ffffffffffffffffffffffffffffffffffffffff167f655a0cf9c8db81512be9a76dc1c5ae5380b8816ce6ad659cd61b715e2999d59a85846002015486604051610a0a9392919061107a565b60405180910390a35060016000819055505050565b60026000541415610a65576040517f08c379a0000000000000000000000000000000000000000000000000000000008152600401610a5c90610fbe565b60405180910390fd5b600260008190555060008111610ab0576040517f08c379a0000000000000000000000000000000000000000000000000000000008152600401610aa790610f3e565b60405180910390fd5b60016000815480929190610ac390611267565b91905055508273ffffffffffffffffffffffffffffffffffffffff166323b872dd3330856040518463ffffffff1660e01b8152600401610b0593929190610f07565b600060405180830381600087803b158015610b1f57600080fd5b505af1158015610b33573d6000803e3d6000fd5b505050506040518060c0016040528060015481526020018473ffffffffffffffffffffffffffffffffffffffff1681526020018381526020018281526020013373ffffffffffffffffffffffffffffffffffffffff168152602001600015158152506002600060015481526020019081526020016000206000820151816000015560208201518160010160006101000a81548173ffffffffffffffffffffffffffffffffffffffff021916908373ffffffffffffffffffffffffffffffffffffffff160217905550604082015181600201556060820151816003015560808201518160040160006101000a81548173ffffffffffffffffffffffffffffffffffffffff021916908373ffffffffffffffffffffffffffffffffffffffff16021790555060a08201518160040160146101000a81548160ff0219169083151502179055509050503373ffffffffffffffffffffffffffffffffffffffff168373ffffffffffffffffffffffffffffffffffffffff167f655a0cf9c8db81512be9a76dc1c5ae5380b8816ce6ad659cd61b715e2999d59a6001548585604051610cdc9392919061107a565b60405180910390a36001600081905550505050565b600081359050610d0081611450565b92915050565b600081359050610d1581611467565b92915050565b600080600060608486031215610d3057600080fd5b6000610d3e86828701610cf1565b9350506020610d4f86828701610d06565b9250506040610d6086828701610d06565b9150509250925092565b600060208284031215610d7c57600080fd5b6000610d8a84828501610d06565b91505092915050565b60008060408385031215610da657600080fd5b6000610db485828601610d06565b9250506020610dc585828601610d06565b9150509250929050565b610dd8816111e9565b82525050565b610de7816111d7565b82525050565b610df6816111fb565b82525050565b610e0581611243565b82525050565b6000610e18601f836110b1565b9150610e238261130e565b602082019050919050565b6000610e3b6023836110b1565b9150610e4682611337565b604082019050919050565b6000610e5e6033836110b1565b9150610e6982611386565b604082019050919050565b6000610e816012836110b1565b9150610e8c826113d5565b602082019050919050565b6000610ea4601f836110b1565b9150610eaf826113fe565b602082019050919050565b6000610ec76011836110b1565b9150610ed282611427565b602082019050919050565b610ee681611239565b82525050565b6000602082019050610f016000830184610dcf565b92915050565b6000606082019050610f1c6000830186610dde565b610f296020830185610dde565b610f366040830184610edd565b949350505050565b60006020820190508181036000830152610f5781610e0b565b9050919050565b60006020820190508181036000830152610f7781610e2e565b9050919050565b60006020820190508181036000830152610f9781610e51565b9050919050565b60006020820190508181036000830152610fb781610e74565b9050919050565b60006020820190508181036000830152610fd781610e97565b9050919050565b60006020820190508181036000830152610ff781610eba565b9050919050565b60006020820190506110136000830184610edd565b92915050565b600060c08201905061102e6000830189610edd565b61103b6020830188610dfc565b6110486040830187610edd565b6110556060830186610edd565b6110626080830185610dcf565b61106f60a0830184610ded565b979650505050505050565b600060608201905061108f6000830186610edd565b61109c6020830185610edd565b6110a96040830184610edd565b949350505050565b600082825260208201905092915050565b60006110cd82611239565b91506110d883611239565b9250827fffffffffffffffffffffffffffffffffffffffffffffffffffffffffffffffff0382111561110d5761110c6112b0565b5b828201905092915050565b600061112382611239565b915061112e83611239565b92508261113e5761113d6112df565b5b828204905092915050565b600061115482611239565b915061115f83611239565b9250817fffffffffffffffffffffffffffffffffffffffffffffffffffffffffffffffff0483118215151615611198576111976112b0565b5b828202905092915050565b60006111ae82611239565b91506111b983611239565b9250828210156111cc576111cb6112b0565b5b828203905092915050565b60006111e282611219565b9050919050565b60006111f482611219565b9050919050565b60008115159050919050565b6000611212826111d7565b9050919050565b600073ffffffffffffffffffffffffffffffffffffffff82169050919050565b6000819050919050565b600061124e82611255565b9050919050565b600061126082611219565b9050919050565b600061127282611239565b91507fffffffffffffffffffffffffffffffffffffffffffffffffffffffffffffffff8214156112a5576112a46112b0565b5b600182019050919050565b7f4e487b7100000000000000000000000000000000000000000000000000000000600052601160045260246000fd5b7f4e487b7100000000000000000000000000000000000000000000000000000000600052601260045260246000fd5b7f5072696365206d7573742062652067726561746572207468616e207a65726f00600082015250565b7f4f6e6c79207468652073656c6c65722063616e20726573656c6c20746865206960008201527f74656d0000000000000000000000000000000000000000000000000000000000602082015250565b7f4e6f7420656e6f75676820457468657220746f20636f766572206974656d207060008201527f7269636520616e64206d61726b65742066656500000000000000000000000000602082015250565b7f4974656d20646f65736e27742065786973740000000000000000000000000000600082015250565b7f5265656e7472616e637947756172643a207265656e7472616e742063616c6c00600082015250565b7f4974656d20616c726561647920736f6c64000000000000000000000000000000600082015250565b61145981611207565b811461146457600080fd5b50565b61147081611239565b811461147b57600080fd5b5056fea2646970667358221220553c74a1bd8be33a342e39efb6305c02b0df262cf2207b3ab4d8b9035e96ed8164736f6c63430008040033",
  "linkReferences": {},
  "deployedLinkReferences": {}
}