{
  "_format": "hh-sol-artifact-1",
  "contractName": "Marketplace",
  "sourceName": "src/backend/contracts/Marketplace.sol",
  "abi": [
    {
      "inputs": [
        {
          "internalType": "uint256",
          "name": "_feePercent",
          "type": "uint256"
        }
      ],
      "stateMutability": "nonpayable",
      "type": "constructor"
    },
    {
      "anonymous": false,
      "inputs": [
        {
          "indexed": false,
          "internalType": "uint256",
          "name": "itemId",
          "type": "uint256"
        },
        {
          "indexed": true,
          "internalType": "address",
          "name": "nft",
          "type": "address"
        },
        {
          "indexed": false,
          "internalType": "uint256",
          "name": "tokenId",
          "type": "uint256"
        },
        {
          "indexed": false,
          "internalType": "uint256",
          "name": "price",
          "type": "uint256"
        },
        {
          "indexed": true,
          "internalType": "address",
          "name": "seller",
          "type": "address"
        },
        {
          "indexed": true,
          "internalType": "address",
          "name": "buyer",
          "type": "address"
        }
      ],
      "name": "Bought",
      "type": "event"
    },
    {
      "anonymous": false,
      "inputs": [
        {
          "indexed": false,
          "internalType": "uint256",
          "name": "itemId",
          "type": "uint256"
        },
        {
          "indexed": true,
          "internalType": "address",
          "name": "nft",
          "type": "address"
        },
        {
          "indexed": false,
          "internalType": "uint256",
          "name": "tokenId",
          "type": "uint256"
        },
        {
          "indexed": false,
          "internalType": "uint256",
          "name": "price",
          "type": "uint256"
        },
        {
          "indexed": true,
          "internalType": "address",
          "name": "seller",
          "type": "address"
        }
      ],
      "name": "Offered",
      "type": "event"
    },
    {
      "inputs": [],
      "name": "feeAccount",
      "outputs": [
        {
          "internalType": "address payable",
          "name": "",
          "type": "address"
        }
      ],
      "stateMutability": "view",
      "type": "function"
    },
    {
      "inputs": [],
      "name": "feePercent",
      "outputs": [
        {
          "internalType": "uint256",
          "name": "",
          "type": "uint256"
        }
      ],
      "stateMutability": "view",
      "type": "function"
    },
    {
      "inputs": [
        {
          "internalType": "uint256",
          "name": "_itemId",
          "type": "uint256"
        }
      ],
      "name": "getTotalPrice",
      "outputs": [
        {
          "internalType": "uint256",
          "name": "",
          "type": "uint256"
        }
      ],
      "stateMutability": "view",
      "type": "function"
    },
    {
      "inputs": [
        {
          "internalType": "address",
          "name": "nftContract",
          "type": "address"
        },
        {
          "internalType": "uint256",
          "name": "tokenId",
          "type": "uint256"
        }
      ],
      "name": "isApprovedOrOwner",
      "outputs": [
        {
          "internalType": "bool",
          "name": "",
          "type": "bool"
        }
      ],
      "stateMutability": "view",
      "type": "function"
    },
    {
      "inputs": [],
      "name": "itemCount",
      "outputs": [
        {
          "internalType": "uint256",
          "name": "",
          "type": "uint256"
        }
      ],
      "stateMutability": "view",
      "type": "function"
    },
    {
      "inputs": [
        {
          "internalType": "uint256",
          "name": "",
          "type": "uint256"
        }
      ],
      "name": "items",
      "outputs": [
        {
          "internalType": "uint256",
          "name": "itemId",
          "type": "uint256"
        },
        {
          "internalType": "contract IERC721",
          "name": "nft",
          "type": "address"
        },
        {
          "internalType": "uint256",
          "name": "tokenId",
          "type": "uint256"
        },
        {
          "internalType": "uint256",
          "name": "price",
          "type": "uint256"
        },
        {
          "internalType": "address payable",
          "name": "seller",
          "type": "address"
        },
        {
          "internalType": "bool",
          "name": "sold",
          "type": "bool"
        },
        {
          "internalType": "address",
          "name": "creator",
          "type": "address"
        }
      ],
      "stateMutability": "view",
      "type": "function"
    },
    {
      "inputs": [
        {
          "internalType": "contract IERC721",
          "name": "_nft",
          "type": "address"
        },
        {
          "internalType": "uint256",
          "name": "_tokenId",
          "type": "uint256"
        },
        {
          "internalType": "uint256",
          "name": "_price",
          "type": "uint256"
        }
      ],
      "name": "makeItem",
      "outputs": [],
      "stateMutability": "nonpayable",
      "type": "function"
    },
    {
      "inputs": [
        {
          "internalType": "uint256",
          "name": "_itemId",
          "type": "uint256"
        }
      ],
      "name": "purchaseItem",
      "outputs": [],
      "stateMutability": "payable",
      "type": "function"
    },
    {
      "inputs": [
        {
          "internalType": "uint256",
          "name": "_itemId",
          "type": "uint256"
        },
        {
          "internalType": "uint256",
          "name": "_price",
          "type": "uint256"
        }
      ],
      "name": "resellItem",
      "outputs": [],
      "stateMutability": "nonpayable",
      "type": "function"
    }
  ],
  "bytecode": "0x60c06040523480156200001157600080fd5b50604051620019ff380380620019ff83398181016040528101906200003791906200009c565b60016000819055503373ffffffffffffffffffffffffffffffffffffffff1660808173ffffffffffffffffffffffffffffffffffffffff1660601b815250508060a0818152505050620000ec565b6000815190506200009681620000d2565b92915050565b600060208284031215620000af57600080fd5b6000620000bf8482850162000085565b91505092915050565b6000819050919050565b620000dd81620000c8565b8114620000e957600080fd5b50565b60805160601c60a0516118dc62000123600039600081816103e701526104be0152600081816103bd01526106e401526118dc6000f3fe6080604052600436106100865760003560e01c8063bfb231d211610059578063bfb231d214610149578063ca7dd3751461018c578063d38ea5bf146101c9578063f9eccb3b146101e5578063fa00afc71461020e57610086565b8063430c20811461008b57806365e17c9d146100c85780636bfb0d01146100f35780637fd6f15c1461011e575b600080fd5b34801561009757600080fd5b506100b260048036038101906100ad9190611035565b610237565b6040516100bf91906112b7565b60405180910390f35b3480156100d457600080fd5b506100dd6103bb565b6040516100ea9190611265565b60405180910390f35b3480156100ff57600080fd5b506101086103df565b60405161011591906113b2565b60405180910390f35b34801561012a57600080fd5b506101336103e5565b60405161014091906113b2565b60405180910390f35b34801561015557600080fd5b50610170600480360381019061016b91906110c0565b610409565b60405161018397969594939291906113cd565b60405180910390f35b34801561019857600080fd5b506101b360048036038101906101ae91906110c0565b6104b8565b6040516101c091906113b2565b60405180910390f35b6101e360048036038101906101de91906110c0565b61051b565b005b3480156101f157600080fd5b5061020c600480360381019061020791906110e9565b61092c565b005b34801561021a57600080fd5b5061023560048036038101906102309190611071565b610c83565b005b6000808390503073ffffffffffffffffffffffffffffffffffffffff168173ffffffffffffffffffffffffffffffffffffffff1663081812fc856040518263ffffffff1660e01b815260040161028d91906113b2565b60206040518083038186803b1580156102a557600080fd5b505afa1580156102b9573d6000803e3d6000fd5b505050506040513d601f19601f820116820180604052508101906102dd919061100c565b73ffffffffffffffffffffffffffffffffffffffff1614806103b257503373ffffffffffffffffffffffffffffffffffffffff168173ffffffffffffffffffffffffffffffffffffffff16636352211e856040518263ffffffff1660e01b815260040161034a91906113b2565b60206040518083038186803b15801561036257600080fd5b505afa158015610376573d6000803e3d6000fd5b505050506040513d601f19601f8201168201806040525081019061039a919061100c565b73ffffffffffffffffffffffffffffffffffffffff16145b91505092915050565b7f000000000000000000000000000000000000000000000000000000000000000081565b60015481565b7f000000000000000000000000000000000000000000000000000000000000000081565b60026020528060005260406000206000915090508060000154908060010160009054906101000a900473ffffffffffffffffffffffffffffffffffffffff16908060020154908060030154908060040160009054906101000a900473ffffffffffffffffffffffffffffffffffffffff16908060040160149054906101000a900460ff16908060050160009054906101000a900473ffffffffffffffffffffffffffffffffffffffff16905087565b600060647f000000000000000000000000000000000000000000000000000000000000000060646104e99190611484565b600260008581526020019081526020016000206003015461050a919061150b565b61051491906114da565b9050919050565b60026000541415610561576040517f08c379a000000000000000000000000000000000000000000000000000000000815260040161055890611372565b60405180910390fd5b60026000819055506000610574826104b8565b9050600060026000848152602001908152602001600020905060008311801561059f57506001548311155b6105de576040517f08c379a00000000000000000000000000000000000000000000000000000000081526004016105d590611352565b60405180910390fd5b81341015610621576040517f08c379a000000000000000000000000000000000000000000000000000000000815260040161061890611312565b60405180910390fd5b8060040160149054906101000a900460ff1615610673576040517f08c379a000000000000000000000000000000000000000000000000000000000815260040161066a90611392565b60405180910390fd5b8060040160009054906101000a900473ffffffffffffffffffffffffffffffffffffffff1673ffffffffffffffffffffffffffffffffffffffff166108fc82600301549081150290604051600060405180830381858888f193505050501580156106e1573d6000803e3d6000fd5b507f000000000000000000000000000000000000000000000000000000000000000073ffffffffffffffffffffffffffffffffffffffff166108fc82600301548461072c9190611565565b9081150290604051600060405180830381858888f19350505050158015610757573d6000803e3d6000fd5b5060018160040160146101000a81548160ff0219169083151502179055508060010160009054906101000a900473ffffffffffffffffffffffffffffffffffffffff1673ffffffffffffffffffffffffffffffffffffffff166323b872dd303384600201546040518463ffffffff1660e01b81526004016107da93929190611280565b600060405180830381600087803b1580156107f457600080fd5b505af1158015610808573d6000803e3d6000fd5b50505050338160040160006101000a81548173ffffffffffffffffffffffffffffffffffffffff021916908373ffffffffffffffffffffffffffffffffffffffff1602179055503373ffffffffffffffffffffffffffffffffffffffff168160040160009054906101000a900473ffffffffffffffffffffffffffffffffffffffff1673ffffffffffffffffffffffffffffffffffffffff168260010160009054906101000a900473ffffffffffffffffffffffffffffffffffffffff1673ffffffffffffffffffffffffffffffffffffffff167f8b4c9c8a607d67b321582dd8461041b1dc2ceeca70c8b7f37f8e02095cf2e76d86856002015486600301546040516109179392919061143c565b60405180910390a45050600160008190555050565b60026000541415610972576040517f08c379a000000000000000000000000000000000000000000000000000000000815260040161096990611372565b60405180910390fd5b60026000819055506000600260008481526020019081526020016000209050600082116109d4576040517f08c379a00000000000000000000000000000000000000000000000000000000081526004016109cb906112d2565b60405180910390fd5b6000831180156109e657506001548311155b610a25576040517f08c379a0000000000000000000000000000000000000000000000000000000008152600401610a1c90611352565b60405180910390fd5b610a578160010160009054906101000a900473ffffffffffffffffffffffffffffffffffffffff168260020154610237565b610a96576040517f08c379a0000000000000000000000000000000000000000000000000000000008152600401610a8d90611332565b60405180910390fd5b8060040160009054906101000a900473ffffffffffffffffffffffffffffffffffffffff1673ffffffffffffffffffffffffffffffffffffffff163373ffffffffffffffffffffffffffffffffffffffff1614610b28576040517f08c379a0000000000000000000000000000000000000000000000000000000008152600401610b1f906112f2565b60405180910390fd5b81816003018190555060008160040160146101000a81548160ff0219169083151502179055508060010160009054906101000a900473ffffffffffffffffffffffffffffffffffffffff1673ffffffffffffffffffffffffffffffffffffffff166323b872dd333084600201546040518463ffffffff1660e01b8152600401610bb393929190611280565b600060405180830381600087803b158015610bcd57600080fd5b505af1158015610be1573d6000803e3d6000fd5b505050503373ffffffffffffffffffffffffffffffffffffffff168160010160009054906101000a900473ffffffffffffffffffffffffffffffffffffffff1673ffffffffffffffffffffffffffffffffffffffff167f655a0cf9c8db81512be9a76dc1c5ae5380b8816ce6ad659cd61b715e2999d59a85846002015486604051610c6e9392919061143c565b60405180910390a35060016000819055505050565b60026000541415610cc9576040517f08c379a0000000000000000000000000000000000000000000000000000000008152600401610cc090611372565b60405180910390fd5b600260008190555060008111610d14576040517f08c379a0000000000000000000000000000000000000000000000000000000008152600401610d0b906112d2565b60405180910390fd5b60016000815480929190610d2790611629565b91905055508273ffffffffffffffffffffffffffffffffffffffff166323b872dd3330856040518463ffffffff1660e01b8152600401610d6993929190611280565b600060405180830381600087803b158015610d8357600080fd5b505af1158015610d97573d6000803e3d6000fd5b505050506040518060e0016040528060015481526020018473ffffffffffffffffffffffffffffffffffffffff1681526020018381526020018281526020013373ffffffffffffffffffffffffffffffffffffffff1681526020016000151581526020013373ffffffffffffffffffffffffffffffffffffffff168152506002600060015481526020019081526020016000206000820151816000015560208201518160010160006101000a81548173ffffffffffffffffffffffffffffffffffffffff021916908373ffffffffffffffffffffffffffffffffffffffff160217905550604082015181600201556060820151816003015560808201518160040160006101000a81548173ffffffffffffffffffffffffffffffffffffffff021916908373ffffffffffffffffffffffffffffffffffffffff16021790555060a08201518160040160146101000a81548160ff02191690831515021790555060c08201518160050160006101000a81548173ffffffffffffffffffffffffffffffffffffffff021916908373ffffffffffffffffffffffffffffffffffffffff1602179055509050503373ffffffffffffffffffffffffffffffffffffffff168373ffffffffffffffffffffffffffffffffffffffff167f655a0cf9c8db81512be9a76dc1c5ae5380b8816ce6ad659cd61b715e2999d59a6001548585604051610fa39392919061143c565b60405180910390a36001600081905550505050565b600081359050610fc781611861565b92915050565b600081519050610fdc81611861565b92915050565b600081359050610ff181611878565b92915050565b6000813590506110068161188f565b92915050565b60006020828403121561101e57600080fd5b600061102c84828501610fcd565b91505092915050565b6000806040838503121561104857600080fd5b600061105685828601610fb8565b925050602061106785828601610ff7565b9150509250929050565b60008060006060848603121561108657600080fd5b600061109486828701610fe2565b93505060206110a586828701610ff7565b92505060406110b686828701610ff7565b9150509250925092565b6000602082840312156110d257600080fd5b60006110e084828501610ff7565b91505092915050565b600080604083850312156110fc57600080fd5b600061110a85828601610ff7565b925050602061111b85828601610ff7565b9150509250929050565b61112e816115ab565b82525050565b61113d81611599565b82525050565b61114c816115bd565b82525050565b61115b81611605565b82525050565b600061116e601f83611473565b9150611179826116d0565b602082019050919050565b6000611191602383611473565b915061119c826116f9565b604082019050919050565b60006111b4603383611473565b91506111bf82611748565b604082019050919050565b60006111d7602883611473565b91506111e282611797565b604082019050919050565b60006111fa601283611473565b9150611205826117e6565b602082019050919050565b600061121d601f83611473565b91506112288261180f565b602082019050919050565b6000611240601183611473565b915061124b82611838565b602082019050919050565b61125f816115fb565b82525050565b600060208201905061127a6000830184611125565b92915050565b60006060820190506112956000830186611134565b6112a26020830185611134565b6112af6040830184611256565b949350505050565b60006020820190506112cc6000830184611143565b92915050565b600060208201905081810360008301526112eb81611161565b9050919050565b6000602082019050818103600083015261130b81611184565b9050919050565b6000602082019050818103600083015261132b816111a7565b9050919050565b6000602082019050818103600083015261134b816111ca565b9050919050565b6000602082019050818103600083015261136b816111ed565b9050919050565b6000602082019050818103600083015261138b81611210565b9050919050565b600060208201905081810360008301526113ab81611233565b9050919050565b60006020820190506113c76000830184611256565b92915050565b600060e0820190506113e2600083018a611256565b6113ef6020830189611152565b6113fc6040830188611256565b6114096060830187611256565b6114166080830186611125565b61142360a0830185611143565b61143060c0830184611134565b98975050505050505050565b60006060820190506114516000830186611256565b61145e6020830185611256565b61146b6040830184611256565b949350505050565b600082825260208201905092915050565b600061148f826115fb565b915061149a836115fb565b9250827fffffffffffffffffffffffffffffffffffffffffffffffffffffffffffffffff038211156114cf576114ce611672565b5b828201905092915050565b60006114e5826115fb565b91506114f0836115fb565b925082611500576114ff6116a1565b5b828204905092915050565b6000611516826115fb565b9150611521836115fb565b9250817fffffffffffffffffffffffffffffffffffffffffffffffffffffffffffffffff048311821515161561155a57611559611672565b5b828202905092915050565b6000611570826115fb565b915061157b836115fb565b92508282101561158e5761158d611672565b5b828203905092915050565b60006115a4826115db565b9050919050565b60006115b6826115db565b9050919050565b60008115159050919050565b60006115d482611599565b9050919050565b600073ffffffffffffffffffffffffffffffffffffffff82169050919050565b6000819050919050565b600061161082611617565b9050919050565b6000611622826115db565b9050919050565b6000611634826115fb565b91507fffffffffffffffffffffffffffffffffffffffffffffffffffffffffffffffff82141561166757611666611672565b5b600182019050919050565b7f4e487b7100000000000000000000000000000000000000000000000000000000600052601160045260246000fd5b7f4e487b7100000000000000000000000000000000000000000000000000000000600052601260045260246000fd5b7f5072696365206d7573742062652067726561746572207468616e207a65726f00600082015250565b7f4f6e6c79207468652073656c6c65722063616e20726573656c6c20746865206960008201527f74656d0000000000000000000000000000000000000000000000000000000000602082015250565b7f4e6f7420656e6f75676820457468657220746f20636f766572206974656d207060008201527f7269636520616e64206d61726b65742066656500000000000000000000000000602082015250565b7f436f6e7472616374206e6f7420617070726f76656420746f206d616e6167652060008201527f74686973204e4654000000000000000000000000000000000000000000000000602082015250565b7f4974656d20646f65736e27742065786973740000000000000000000000000000600082015250565b7f5265656e7472616e637947756172643a207265656e7472616e742063616c6c00600082015250565b7f4974656d20616c726561647920736f6c64000000000000000000000000000000600082015250565b61186a81611599565b811461187557600080fd5b50565b611881816115c9565b811461188c57600080fd5b50565b611898816115fb565b81146118a357600080fd5b5056fea26469706673582212209c58a0ad9dc58f36aeb1339d5c3b34cea6fb4bab41de1beadbae163dcfa2847264736f6c63430008040033",
  "linkReferences": {},
  "deployedLinkReferences": {}
}