{
  "_format": "hh-sol-artifact-1",
  "contractName": "Marketplace",
  "sourceName": "src/backend/contracts/Marketplace.sol",
  "abi": [
    {
      "inputs": [
        {
          "internalType": "uint256",
          "name": "_feePercent",
          "type": "uint256"
        }
      ],
      "stateMutability": "nonpayable",
      "type": "constructor"
    },
    {
      "anonymous": false,
      "inputs": [
        {
          "indexed": false,
          "internalType": "uint256",
          "name": "itemId",
          "type": "uint256"
        },
        {
          "indexed": true,
          "internalType": "address",
          "name": "nft",
          "type": "address"
        },
        {
          "indexed": false,
          "internalType": "uint256",
          "name": "tokenId",
          "type": "uint256"
        },
        {
          "indexed": false,
          "internalType": "uint256",
          "name": "price",
          "type": "uint256"
        },
        {
          "indexed": true,
          "internalType": "address",
          "name": "seller",
          "type": "address"
        },
        {
          "indexed": true,
          "internalType": "address",
          "name": "buyer",
          "type": "address"
        }
      ],
      "name": "Bought",
      "type": "event"
    },
    {
      "anonymous": false,
      "inputs": [
        {
          "indexed": false,
          "internalType": "uint256",
          "name": "itemId",
          "type": "uint256"
        },
        {
          "indexed": true,
          "internalType": "address",
          "name": "nft",
          "type": "address"
        },
        {
          "indexed": false,
          "internalType": "uint256",
          "name": "tokenId",
          "type": "uint256"
        },
        {
          "indexed": false,
          "internalType": "uint256",
          "name": "price",
          "type": "uint256"
        },
        {
          "indexed": true,
          "internalType": "address",
          "name": "seller",
          "type": "address"
        }
      ],
      "name": "Offered",
      "type": "event"
    },
    {
      "inputs": [],
      "name": "feeAccount",
      "outputs": [
        {
          "internalType": "address payable",
          "name": "",
          "type": "address"
        }
      ],
      "stateMutability": "view",
      "type": "function"
    },
    {
      "inputs": [],
      "name": "feePercent",
      "outputs": [
        {
          "internalType": "uint256",
          "name": "",
          "type": "uint256"
        }
      ],
      "stateMutability": "view",
      "type": "function"
    },
    {
      "inputs": [
        {
          "internalType": "uint256",
          "name": "_itemId",
          "type": "uint256"
        }
      ],
      "name": "getTotalPrice",
      "outputs": [
        {
          "internalType": "uint256",
          "name": "",
          "type": "uint256"
        }
      ],
      "stateMutability": "view",
      "type": "function"
    },
    {
      "inputs": [
        {
          "internalType": "address",
          "name": "nftContract",
          "type": "address"
        },
        {
          "internalType": "uint256",
          "name": "tokenId",
          "type": "uint256"
        }
      ],
      "name": "isApprovedOrOwner",
      "outputs": [
        {
          "internalType": "bool",
          "name": "",
          "type": "bool"
        }
      ],
      "stateMutability": "view",
      "type": "function"
    },
    {
      "inputs": [
        {
          "internalType": "uint256",
          "name": "itemId",
          "type": "uint256"
        }
      ],
      "name": "isOwner",
      "outputs": [
        {
          "internalType": "bool",
          "name": "",
          "type": "bool"
        }
      ],
      "stateMutability": "view",
      "type": "function"
    },
    {
      "inputs": [],
      "name": "itemCount",
      "outputs": [
        {
          "internalType": "uint256",
          "name": "",
          "type": "uint256"
        }
      ],
      "stateMutability": "view",
      "type": "function"
    },
    {
      "inputs": [
        {
          "internalType": "uint256",
          "name": "",
          "type": "uint256"
        }
      ],
      "name": "items",
      "outputs": [
        {
          "internalType": "uint256",
          "name": "itemId",
          "type": "uint256"
        },
        {
          "internalType": "contract IERC721",
          "name": "nft",
          "type": "address"
        },
        {
          "internalType": "uint256",
          "name": "tokenId",
          "type": "uint256"
        },
        {
          "internalType": "uint256",
          "name": "price",
          "type": "uint256"
        },
        {
          "internalType": "address payable",
          "name": "seller",
          "type": "address"
        },
        {
          "internalType": "bool",
          "name": "sold",
          "type": "bool"
        },
        {
          "internalType": "address",
          "name": "creator",
          "type": "address"
        }
      ],
      "stateMutability": "view",
      "type": "function"
    },
    {
      "inputs": [
        {
          "internalType": "contract IERC721",
          "name": "_nft",
          "type": "address"
        },
        {
          "internalType": "uint256",
          "name": "_tokenId",
          "type": "uint256"
        },
        {
          "internalType": "uint256",
          "name": "_price",
          "type": "uint256"
        }
      ],
      "name": "makeItem",
      "outputs": [],
      "stateMutability": "nonpayable",
      "type": "function"
    },
    {
      "inputs": [
        {
          "internalType": "uint256",
          "name": "_itemId",
          "type": "uint256"
        }
      ],
      "name": "purchaseItem",
      "outputs": [],
      "stateMutability": "payable",
      "type": "function"
    },
    {
      "inputs": [
        {
          "internalType": "uint256",
          "name": "_itemId",
          "type": "uint256"
        },
        {
          "internalType": "uint256",
          "name": "_price",
          "type": "uint256"
        }
      ],
      "name": "resellItem",
      "outputs": [],
      "stateMutability": "nonpayable",
      "type": "function"
    }
  ],
  "bytecode": "0x60c06040523480156200001157600080fd5b5060405162001ab538038062001ab583398181016040528101906200003791906200009c565b60016000819055503373ffffffffffffffffffffffffffffffffffffffff1660808173ffffffffffffffffffffffffffffffffffffffff1660601b815250508060a0818152505050620000ec565b6000815190506200009681620000d2565b92915050565b600060208284031215620000af57600080fd5b6000620000bf8482850162000085565b91505092915050565b6000819050919050565b620000dd81620000c8565b8114620000e957600080fd5b50565b60805160601c60a051611992620001236000396000818161049d0152610574015260008181610473015261079a01526119926000f3fe6080604052600436106100915760003560e01c8063bfb231d211610059578063bfb231d214610191578063ca7dd375146101d4578063d38ea5bf14610211578063f9eccb3b1461022d578063fa00afc71461025657610091565b806339c7639c14610096578063430c2081146100d357806365e17c9d146101105780636bfb0d011461013b5780637fd6f15c14610166575b600080fd5b3480156100a257600080fd5b506100bd60048036038101906100b89190611176565b61027f565b6040516100ca919061136d565b60405180910390f35b3480156100df57600080fd5b506100fa60048036038101906100f591906110eb565b6102ed565b604051610107919061136d565b60405180910390f35b34801561011c57600080fd5b50610125610471565b604051610132919061131b565b60405180910390f35b34801561014757600080fd5b50610150610495565b60405161015d9190611468565b60405180910390f35b34801561017257600080fd5b5061017b61049b565b6040516101889190611468565b60405180910390f35b34801561019d57600080fd5b506101b860048036038101906101b39190611176565b6104bf565b6040516101cb9796959493929190611483565b60405180910390f35b3480156101e057600080fd5b506101fb60048036038101906101f69190611176565b61056e565b6040516102089190611468565b60405180910390f35b61022b60048036038101906102269190611176565b6105d1565b005b34801561023957600080fd5b50610254600480360381019061024f919061119f565b6109e2565b005b34801561026257600080fd5b5061027d60048036038101906102789190611127565b610d39565b005b60003373ffffffffffffffffffffffffffffffffffffffff166002600084815260200190815260200160002060040160009054906101000a900473ffffffffffffffffffffffffffffffffffffffff1673ffffffffffffffffffffffffffffffffffffffff16149050919050565b6000808390503073ffffffffffffffffffffffffffffffffffffffff168173ffffffffffffffffffffffffffffffffffffffff1663081812fc856040518263ffffffff1660e01b81526004016103439190611468565b60206040518083038186803b15801561035b57600080fd5b505afa15801561036f573d6000803e3d6000fd5b505050506040513d601f19601f8201168201806040525081019061039391906110c2565b73ffffffffffffffffffffffffffffffffffffffff16148061046857503373ffffffffffffffffffffffffffffffffffffffff168173ffffffffffffffffffffffffffffffffffffffff16636352211e856040518263ffffffff1660e01b81526004016104009190611468565b60206040518083038186803b15801561041857600080fd5b505afa15801561042c573d6000803e3d6000fd5b505050506040513d601f19601f8201168201806040525081019061045091906110c2565b73ffffffffffffffffffffffffffffffffffffffff16145b91505092915050565b7f000000000000000000000000000000000000000000000000000000000000000081565b60015481565b7f000000000000000000000000000000000000000000000000000000000000000081565b60026020528060005260406000206000915090508060000154908060010160009054906101000a900473ffffffffffffffffffffffffffffffffffffffff16908060020154908060030154908060040160009054906101000a900473ffffffffffffffffffffffffffffffffffffffff16908060040160149054906101000a900460ff16908060050160009054906101000a900473ffffffffffffffffffffffffffffffffffffffff16905087565b600060647f0000000000000000000000000000000000000000000000000000000000000000606461059f919061153a565b60026000858152602001908152602001600020600301546105c091906115c1565b6105ca9190611590565b9050919050565b60026000541415610617576040517f08c379a000000000000000000000000000000000000000000000000000000000815260040161060e90611428565b60405180910390fd5b6002600081905550600061062a8261056e565b9050600060026000848152602001908152602001600020905060008311801561065557506001548311155b610694576040517f08c379a000000000000000000000000000000000000000000000000000000000815260040161068b90611408565b60405180910390fd5b813410156106d7576040517f08c379a00000000000000000000000000000000000000000000000000000000081526004016106ce906113c8565b60405180910390fd5b8060040160149054906101000a900460ff1615610729576040517f08c379a000000000000000000000000000000000000000000000000000000000815260040161072090611448565b60405180910390fd5b8060040160009054906101000a900473ffffffffffffffffffffffffffffffffffffffff1673ffffffffffffffffffffffffffffffffffffffff166108fc82600301549081150290604051600060405180830381858888f19350505050158015610797573d6000803e3d6000fd5b507f000000000000000000000000000000000000000000000000000000000000000073ffffffffffffffffffffffffffffffffffffffff166108fc8260030154846107e2919061161b565b9081150290604051600060405180830381858888f1935050505015801561080d573d6000803e3d6000fd5b5060018160040160146101000a81548160ff0219169083151502179055508060010160009054906101000a900473ffffffffffffffffffffffffffffffffffffffff1673ffffffffffffffffffffffffffffffffffffffff166323b872dd303384600201546040518463ffffffff1660e01b815260040161089093929190611336565b600060405180830381600087803b1580156108aa57600080fd5b505af11580156108be573d6000803e3d6000fd5b50505050338160040160006101000a81548173ffffffffffffffffffffffffffffffffffffffff021916908373ffffffffffffffffffffffffffffffffffffffff1602179055503373ffffffffffffffffffffffffffffffffffffffff168160040160009054906101000a900473ffffffffffffffffffffffffffffffffffffffff1673ffffffffffffffffffffffffffffffffffffffff168260010160009054906101000a900473ffffffffffffffffffffffffffffffffffffffff1673ffffffffffffffffffffffffffffffffffffffff167f8b4c9c8a607d67b321582dd8461041b1dc2ceeca70c8b7f37f8e02095cf2e76d86856002015486600301546040516109cd939291906114f2565b60405180910390a45050600160008190555050565b60026000541415610a28576040517f08c379a0000000000000000000000000000000000000000000000000000000008152600401610a1f90611428565b60405180910390fd5b6002600081905550600060026000848152602001908152602001600020905060008211610a8a576040517f08c379a0000000000000000000000000000000000000000000000000000000008152600401610a8190611388565b60405180910390fd5b600083118015610a9c57506001548311155b610adb576040517f08c379a0000000000000000000000000000000000000000000000000000000008152600401610ad290611408565b60405180910390fd5b610b0d8160010160009054906101000a900473ffffffffffffffffffffffffffffffffffffffff1682600201546102ed565b610b4c576040517f08c379a0000000000000000000000000000000000000000000000000000000008152600401610b43906113e8565b60405180910390fd5b8060040160009054906101000a900473ffffffffffffffffffffffffffffffffffffffff1673ffffffffffffffffffffffffffffffffffffffff163373ffffffffffffffffffffffffffffffffffffffff1614610bde576040517f08c379a0000000000000000000000000000000000000000000000000000000008152600401610bd5906113a8565b60405180910390fd5b81816003018190555060008160040160146101000a81548160ff0219169083151502179055508060010160009054906101000a900473ffffffffffffffffffffffffffffffffffffffff1673ffffffffffffffffffffffffffffffffffffffff166323b872dd333084600201546040518463ffffffff1660e01b8152600401610c6993929190611336565b600060405180830381600087803b158015610c8357600080fd5b505af1158015610c97573d6000803e3d6000fd5b505050503373ffffffffffffffffffffffffffffffffffffffff168160010160009054906101000a900473ffffffffffffffffffffffffffffffffffffffff1673ffffffffffffffffffffffffffffffffffffffff167f655a0cf9c8db81512be9a76dc1c5ae5380b8816ce6ad659cd61b715e2999d59a85846002015486604051610d24939291906114f2565b60405180910390a35060016000819055505050565b60026000541415610d7f576040517f08c379a0000000000000000000000000000000000000000000000000000000008152600401610d7690611428565b60405180910390fd5b600260008190555060008111610dca576040517f08c379a0000000000000000000000000000000000000000000000000000000008152600401610dc190611388565b60405180910390fd5b60016000815480929190610ddd906116df565b91905055508273ffffffffffffffffffffffffffffffffffffffff166323b872dd3330856040518463ffffffff1660e01b8152600401610e1f93929190611336565b600060405180830381600087803b158015610e3957600080fd5b505af1158015610e4d573d6000803e3d6000fd5b505050506040518060e0016040528060015481526020018473ffffffffffffffffffffffffffffffffffffffff1681526020018381526020018281526020013373ffffffffffffffffffffffffffffffffffffffff1681526020016000151581526020013373ffffffffffffffffffffffffffffffffffffffff168152506002600060015481526020019081526020016000206000820151816000015560208201518160010160006101000a81548173ffffffffffffffffffffffffffffffffffffffff021916908373ffffffffffffffffffffffffffffffffffffffff160217905550604082015181600201556060820151816003015560808201518160040160006101000a81548173ffffffffffffffffffffffffffffffffffffffff021916908373ffffffffffffffffffffffffffffffffffffffff16021790555060a08201518160040160146101000a81548160ff02191690831515021790555060c08201518160050160006101000a81548173ffffffffffffffffffffffffffffffffffffffff021916908373ffffffffffffffffffffffffffffffffffffffff1602179055509050503373ffffffffffffffffffffffffffffffffffffffff168373ffffffffffffffffffffffffffffffffffffffff167f655a0cf9c8db81512be9a76dc1c5ae5380b8816ce6ad659cd61b715e2999d59a6001548585604051611059939291906114f2565b60405180910390a36001600081905550505050565b60008135905061107d81611917565b92915050565b60008151905061109281611917565b92915050565b6000813590506110a78161192e565b92915050565b6000813590506110bc81611945565b92915050565b6000602082840312156110d457600080fd5b60006110e284828501611083565b91505092915050565b600080604083850312156110fe57600080fd5b600061110c8582860161106e565b925050602061111d858286016110ad565b9150509250929050565b60008060006060848603121561113c57600080fd5b600061114a86828701611098565b935050602061115b868287016110ad565b925050604061116c868287016110ad565b9150509250925092565b60006020828403121561118857600080fd5b6000611196848285016110ad565b91505092915050565b600080604083850312156111b257600080fd5b60006111c0858286016110ad565b92505060206111d1858286016110ad565b9150509250929050565b6111e481611661565b82525050565b6111f38161164f565b82525050565b61120281611673565b82525050565b611211816116bb565b82525050565b6000611224601f83611529565b915061122f82611786565b602082019050919050565b6000611247602383611529565b9150611252826117af565b604082019050919050565b600061126a603383611529565b9150611275826117fe565b604082019050919050565b600061128d602883611529565b91506112988261184d565b604082019050919050565b60006112b0601283611529565b91506112bb8261189c565b602082019050919050565b60006112d3601f83611529565b91506112de826118c5565b602082019050919050565b60006112f6601183611529565b9150611301826118ee565b602082019050919050565b611315816116b1565b82525050565b600060208201905061133060008301846111db565b92915050565b600060608201905061134b60008301866111ea565b61135860208301856111ea565b611365604083018461130c565b949350505050565b600060208201905061138260008301846111f9565b92915050565b600060208201905081810360008301526113a181611217565b9050919050565b600060208201905081810360008301526113c18161123a565b9050919050565b600060208201905081810360008301526113e18161125d565b9050919050565b6000602082019050818103600083015261140181611280565b9050919050565b60006020820190508181036000830152611421816112a3565b9050919050565b60006020820190508181036000830152611441816112c6565b9050919050565b60006020820190508181036000830152611461816112e9565b9050919050565b600060208201905061147d600083018461130c565b92915050565b600060e082019050611498600083018a61130c565b6114a56020830189611208565b6114b2604083018861130c565b6114bf606083018761130c565b6114cc60808301866111db565b6114d960a08301856111f9565b6114e660c08301846111ea565b98975050505050505050565b6000606082019050611507600083018661130c565b611514602083018561130c565b611521604083018461130c565b949350505050565b600082825260208201905092915050565b6000611545826116b1565b9150611550836116b1565b9250827fffffffffffffffffffffffffffffffffffffffffffffffffffffffffffffffff0382111561158557611584611728565b5b828201905092915050565b600061159b826116b1565b91506115a6836116b1565b9250826115b6576115b5611757565b5b828204905092915050565b60006115cc826116b1565b91506115d7836116b1565b9250817fffffffffffffffffffffffffffffffffffffffffffffffffffffffffffffffff04831182151516156116105761160f611728565b5b828202905092915050565b6000611626826116b1565b9150611631836116b1565b92508282101561164457611643611728565b5b828203905092915050565b600061165a82611691565b9050919050565b600061166c82611691565b9050919050565b60008115159050919050565b600061168a8261164f565b9050919050565b600073ffffffffffffffffffffffffffffffffffffffff82169050919050565b6000819050919050565b60006116c6826116cd565b9050919050565b60006116d882611691565b9050919050565b60006116ea826116b1565b91507fffffffffffffffffffffffffffffffffffffffffffffffffffffffffffffffff82141561171d5761171c611728565b5b600182019050919050565b7f4e487b7100000000000000000000000000000000000000000000000000000000600052601160045260246000fd5b7f4e487b7100000000000000000000000000000000000000000000000000000000600052601260045260246000fd5b7f5072696365206d7573742062652067726561746572207468616e207a65726f00600082015250565b7f4f6e6c79207468652073656c6c65722063616e20726573656c6c20746865206960008201527f74656d0000000000000000000000000000000000000000000000000000000000602082015250565b7f4e6f7420656e6f75676820457468657220746f20636f766572206974656d207060008201527f7269636520616e64206d61726b65742066656500000000000000000000000000602082015250565b7f436f6e7472616374206e6f7420617070726f76656420746f206d616e6167652060008201527f74686973204e4654000000000000000000000000000000000000000000000000602082015250565b7f4974656d20646f65736e27742065786973740000000000000000000000000000600082015250565b7f5265656e7472616e637947756172643a207265656e7472616e742063616c6c00600082015250565b7f4974656d20616c726561647920736f6c64000000000000000000000000000000600082015250565b6119208161164f565b811461192b57600080fd5b50565b6119378161167f565b811461194257600080fd5b50565b61194e816116b1565b811461195957600080fd5b5056fea2646970667358221220305b91694669700e5e6796065ebba99534ac9c45c4afe1b9004cb50da285a11164736f6c63430008040033",
  "linkReferences": {},
  "deployedLinkReferences": {}
}